{
  "contractName": "JankenGame",
  "abi": [
    {
      "inputs": [],
      "name": "playerHand1",
      "outputs": [
        {
          "internalType": "string",
          "name": "",
          "type": "string"
        }
      ],
      "stateMutability": "view",
      "type": "function",
      "constant": true
    },
    {
      "inputs": [],
      "name": "playerHand2",
      "outputs": [
        {
          "internalType": "string",
          "name": "",
          "type": "string"
        }
      ],
      "stateMutability": "view",
      "type": "function",
      "constant": true
    },
    {
      "inputs": [
        {
          "internalType": "string",
          "name": "_playerHand1",
          "type": "string"
        },
        {
          "internalType": "uint16",
          "name": "_playerId1",
          "type": "uint16"
        }
      ],
      "name": "setPlayerHand1",
      "outputs": [],
      "stateMutability": "nonpayable",
      "type": "function"
    },
    {
      "inputs": [
        {
          "internalType": "string",
          "name": "_playerHand2",
          "type": "string"
        },
        {
          "internalType": "uint16",
          "name": "_playerId2",
          "type": "uint16"
        }
      ],
      "name": "setPlayerHand2",
      "outputs": [],
      "stateMutability": "nonpayable",
      "type": "function"
    },
    {
      "inputs": [
        {
          "internalType": "uint16",
          "name": "_podSize",
          "type": "uint16"
        }
      ],
      "name": "setPodSize",
      "outputs": [],
      "stateMutability": "nonpayable",
      "type": "function"
    },
    {
      "inputs": [],
      "name": "calcGame",
      "outputs": [],
      "stateMutability": "nonpayable",
      "type": "function"
    },
    {
      "inputs": [],
      "name": "getAllGameLog",
      "outputs": [
        {
          "components": [
            {
              "internalType": "uint16",
              "name": "winnerId",
              "type": "uint16"
            },
            {
              "internalType": "uint16",
              "name": "looserId",
              "type": "uint16"
            },
            {
              "internalType": "uint16",
              "name": "playerId1",
              "type": "uint16"
            },
            {
              "internalType": "uint16",
              "name": "playerId2",
              "type": "uint16"
            },
            {
              "internalType": "uint16",
              "name": "podSize",
              "type": "uint16"
            },
            {
              "internalType": "string",
              "name": "playerHand1",
              "type": "string"
            },
            {
              "internalType": "string",
              "name": "playerHand2",
              "type": "string"
            },
            {
              "internalType": "uint256",
              "name": "date",
              "type": "uint256"
            }
          ],
          "internalType": "struct JankenGame.JankenGameLog[]",
          "name": "",
          "type": "tuple[]"
        }
      ],
      "stateMutability": "view",
      "type": "function",
      "constant": true
    }
  ],
  "bytecode": "0x608060405234801561001057600080fd5b50611b06806100206000396000f3fe608060405234801561001057600080fd5b506004361061007d5760003560e01c80639d99b6271161005b5780639d99b627146100da578063f1838771146100e4578063fb8c1e4214610102578063fc4fb00b1461011e5761007d565b80632b5e17f6146100825780635e9d4ce41461009e57806363c00702146100bc575b600080fd5b61009c600480360381019061009791906116dd565b61013a565b005b6100a6610172565b6040516100b391906117c1565b60405180910390f35b6100c4610200565b6040516100d191906119ce565b60405180910390f35b6100e261042e565b005b6100ec6110b4565b6040516100f991906117c1565b60405180910390f35b61011c600480360381019061011791906116dd565b611142565b005b610138600480360381019061013391906119f0565b611179565b005b81600090805190602001906101509291906114a6565b5080600260006101000a81548161ffff021916908361ffff1602179055505050565b6001805461017f90611a4c565b80601f01602080910402602001604051908101604052809291908181526020018280546101ab90611a4c565b80156101f85780601f106101cd576101008083540402835291602001916101f8565b820191906000526020600020905b8154815290600101906020018083116101db57829003601f168201915b505050505081565b60606003805480602002602001604051908101604052809291908181526020016000905b828210156104255783829060005260206000209060040201604051806101000160405290816000820160009054906101000a900461ffff1661ffff1661ffff1681526020016000820160029054906101000a900461ffff1661ffff1661ffff1681526020016000820160049054906101000a900461ffff1661ffff1661ffff1681526020016000820160069054906101000a900461ffff1661ffff1661ffff1681526020016000820160089054906101000a900461ffff1661ffff1661ffff1681526020016001820180546102f890611a4c565b80601f016020809104026020016040519081016040528092919081815260200182805461032490611a4c565b80156103715780601f1061034657610100808354040283529160200191610371565b820191906000526020600020905b81548152906001019060200180831161035457829003601f168201915b5050505050815260200160028201805461038a90611a4c565b80601f01602080910402602001604051908101604052809291908181526020018280546103b690611a4c565b80156104035780601f106103d857610100808354040283529160200191610403565b820191906000526020600020905b8154815290600101906020018083116103e657829003601f168201915b5050505050815260200160038201548152505081526020019060010190610224565b50505050905090565b61054c6000805461043e90611a4c565b80601f016020809104026020016040519081016040528092919081815260200182805461046a90611a4c565b80156104b75780601f1061048c576101008083540402835291602001916104b7565b820191906000526020600020905b81548152906001019060200180831161049a57829003601f168201915b5050505050600180546104c990611a4c565b80601f01602080910402602001604051908101604052809291908181526020018280546104f590611a4c565b80156105425780601f1061051757610100808354040283529160200191610542565b820191906000526020600020905b81548152906001019060200180831161052557829003601f168201915b5050505050611199565b1561055d5761055c6000806111f2565b5b6106266000805461056d90611a4c565b80601f016020809104026020016040519081016040528092919081815260200182805461059990611a4c565b80156105e65780601f106105bb576101008083540402835291602001916105e6565b820191906000526020600020905b8154815290600101906020018083116105c957829003601f168201915b50505050506040518060400160405280600181526020017f4700000000000000000000000000000000000000000000000000000000000000815250611199565b80156106f757506106f66001805461063d90611a4c565b80601f016020809104026020016040519081016040528092919081815260200182805461066990611a4c565b80156106b65780601f1061068b576101008083540402835291602001916106b6565b820191906000526020600020905b81548152906001019060200180831161069957829003601f168201915b50505050506040518060400160405280600181526020017f4300000000000000000000000000000000000000000000000000000000000000815250611199565b5b1561072557610724600260009054906101000a900461ffff1660028054906101000a900461ffff166111f2565b5b6107ee6000805461073590611a4c565b80601f016020809104026020016040519081016040528092919081815260200182805461076190611a4c565b80156107ae5780601f10610783576101008083540402835291602001916107ae565b820191906000526020600020905b81548152906001019060200180831161079157829003601f168201915b50505050506040518060400160405280600181526020017f4700000000000000000000000000000000000000000000000000000000000000815250611199565b80156108bf57506108be6001805461080590611a4c565b80601f016020809104026020016040519081016040528092919081815260200182805461083190611a4c565b801561087e5780601f106108535761010080835404028352916020019161087e565b820191906000526020600020905b81548152906001019060200180831161086157829003601f168201915b50505050506040518060400160405280600181526020017f5000000000000000000000000000000000000000000000000000000000000000815250611199565b5b156108ed576108ec60028054906101000a900461ffff16600260009054906101000a900461ffff166111f2565b5b6109b6600080546108fd90611a4c565b80601f016020809104026020016040519081016040528092919081815260200182805461092990611a4c565b80156109765780601f1061094b57610100808354040283529160200191610976565b820191906000526020600020905b81548152906001019060200180831161095957829003601f168201915b50505050506040518060400160405280600181526020017f4300000000000000000000000000000000000000000000000000000000000000815250611199565b8015610a875750610a86600180546109cd90611a4c565b80601f01602080910402602001604051908101604052809291908181526020018280546109f990611a4c565b8015610a465780601f10610a1b57610100808354040283529160200191610a46565b820191906000526020600020905b815481529060010190602001808311610a2957829003601f168201915b50505050506040518060400160405280600181526020017f5000000000000000000000000000000000000000000000000000000000000000815250611199565b5b15610ab557610ab4600260009054906101000a900461ffff1660028054906101000a900461ffff166111f2565b5b610b7e60008054610ac590611a4c565b80601f0160208091040260200160405190810160405280929190818152602001828054610af190611a4c565b8015610b3e5780601f10610b1357610100808354040283529160200191610b3e565b820191906000526020600020905b815481529060010190602001808311610b2157829003601f168201915b50505050506040518060400160405280600181526020017f4300000000000000000000000000000000000000000000000000000000000000815250611199565b8015610c4f5750610c4e60018054610b9590611a4c565b80601f0160208091040260200160405190810160405280929190818152602001828054610bc190611a4c565b8015610c0e5780601f10610be357610100808354040283529160200191610c0e565b820191906000526020600020905b815481529060010190602001808311610bf157829003601f168201915b50505050506040518060400160405280600181526020017f4700000000000000000000000000000000000000000000000000000000000000815250611199565b5b15610c7d57610c7c60028054906101000a900461ffff16600260009054906101000a900461ffff166111f2565b5b610d4660008054610c8d90611a4c565b80601f0160208091040260200160405190810160405280929190818152602001828054610cb990611a4c565b8015610d065780601f10610cdb57610100808354040283529160200191610d06565b820191906000526020600020905b815481529060010190602001808311610ce957829003601f168201915b50505050506040518060400160405280600181526020017f5000000000000000000000000000000000000000000000000000000000000000815250611199565b8015610e175750610e1660018054610d5d90611a4c565b80601f0160208091040260200160405190810160405280929190818152602001828054610d8990611a4c565b8015610dd65780601f10610dab57610100808354040283529160200191610dd6565b820191906000526020600020905b815481529060010190602001808311610db957829003601f168201915b50505050506040518060400160405280600181526020017f4700000000000000000000000000000000000000000000000000000000000000815250611199565b5b15610e4557610e44600260009054906101000a900461ffff1660028054906101000a900461ffff166111f2565b5b610f0e60008054610e5590611a4c565b80601f0160208091040260200160405190810160405280929190818152602001828054610e8190611a4c565b8015610ece5780601f10610ea357610100808354040283529160200191610ece565b820191906000526020600020905b815481529060010190602001808311610eb157829003601f168201915b50505050506040518060400160405280600181526020017f5000000000000000000000000000000000000000000000000000000000000000815250611199565b8015610fdf5750610fde60018054610f2590611a4c565b80601f0160208091040260200160405190810160405280929190818152602001828054610f5190611a4c565b8015610f9e5780601f10610f7357610100808354040283529160200191610f9e565b820191906000526020600020905b815481529060010190602001808311610f8157829003601f168201915b50505050506040518060400160405280600181526020017f4300000000000000000000000000000000000000000000000000000000000000815250611199565b5b1561100d5761100c60028054906101000a900461ffff16600260009054906101000a900461ffff166111f2565b5b6000600260006101000a81548161ffff021916908361ffff16021790555060006002806101000a81548161ffff021916908361ffff160217905550604051806020016040528060008152506000908051906020019061106d9291906114a6565b5060405180602001604052806000815250600190805190602001906110939291906114a6565b506000600260046101000a81548161ffff021916908361ffff160217905550565b600080546110c190611a4c565b80601f01602080910402602001604051908101604052809291908181526020018280546110ed90611a4c565b801561113a5780601f1061110f5761010080835404028352916020019161113a565b820191906000526020600020905b81548152906001019060200180831161111d57829003601f168201915b505050505081565b81600190805190602001906111589291906114a6565b50806002806101000a81548161ffff021916908361ffff1602179055505050565b80600260046101000a81548161ffff021916908361ffff16021790555050565b6000816040516020016111ac9190611ab9565b60405160208183030381529060405280519060200120836040516020016111d39190611ab9565b6040516020818303038152906040528051906020012014905092915050565b60036040518061010001604052808461ffff1681526020018361ffff168152602001600260009054906101000a900461ffff1661ffff16815260200160028054906101000a900461ffff1661ffff168152602001600260049054906101000a900461ffff1661ffff1681526020016000805461126d90611a4c565b80601f016020809104026020016040519081016040528092919081815260200182805461129990611a4c565b80156112e65780601f106112bb576101008083540402835291602001916112e6565b820191906000526020600020905b8154815290600101906020018083116112c957829003601f168201915b50505050508152602001600180546112fd90611a4c565b80601f016020809104026020016040519081016040528092919081815260200182805461132990611a4c565b80156113765780601f1061134b57610100808354040283529160200191611376565b820191906000526020600020905b81548152906001019060200180831161135957829003601f168201915b5050505050815260200142815250908060018154018082558091505060019003906000526020600020906004020160009091909190915060008201518160000160006101000a81548161ffff021916908361ffff16021790555060208201518160000160026101000a81548161ffff021916908361ffff16021790555060408201518160000160046101000a81548161ffff021916908361ffff16021790555060608201518160000160066101000a81548161ffff021916908361ffff16021790555060808201518160000160086101000a81548161ffff021916908361ffff16021790555060a08201518160010190805190602001906114789291906114a6565b5060c08201518160020190805190602001906114959291906114a6565b5060e0820151816003015550505050565b8280546114b290611a4c565b90600052602060002090601f0160209004810192826114d4576000855561151b565b82601f106114ed57805160ff191683800117855561151b565b8280016001018555821561151b579182015b8281111561151a5782518255916020019190600101906114ff565b5b509050611528919061152c565b5090565b5b8082111561154557600081600090555060010161152d565b5090565b6000604051905090565b600080fd5b600080fd5b600080fd5b600080fd5b6000601f19601f8301169050919050565b7f4e487b7100000000000000000000000000000000000000000000000000000000600052604160045260246000fd5b6115b082611567565b810181811067ffffffffffffffff821117156115cf576115ce611578565b5b80604052505050565b60006115e2611549565b90506115ee82826115a7565b919050565b600067ffffffffffffffff82111561160e5761160d611578565b5b61161782611567565b9050602081019050919050565b82818337600083830152505050565b6000611646611641846115f3565b6115d8565b90508281526020810184848401111561166257611661611562565b5b61166d848285611624565b509392505050565b600082601f83011261168a5761168961155d565b5b813561169a848260208601611633565b91505092915050565b600061ffff82169050919050565b6116ba816116a3565b81146116c557600080fd5b50565b6000813590506116d7816116b1565b92915050565b600080604083850312156116f4576116f3611553565b5b600083013567ffffffffffffffff81111561171257611711611558565b5b61171e85828601611675565b925050602061172f858286016116c8565b9150509250929050565b600081519050919050565b600082825260208201905092915050565b60005b83811015611773578082015181840152602081019050611758565b83811115611782576000848401525b50505050565b600061179382611739565b61179d8185611744565b93506117ad818560208601611755565b6117b681611567565b840191505092915050565b600060208201905081810360008301526117db8184611788565b905092915050565b600081519050919050565b600082825260208201905092915050565b6000819050602082019050919050565b611818816116a3565b82525050565b600082825260208201905092915050565b600061183a82611739565b611844818561181e565b9350611854818560208601611755565b61185d81611567565b840191505092915050565b6000819050919050565b61187b81611868565b82525050565b60006101008301600083015161189a600086018261180f565b5060208301516118ad602086018261180f565b5060408301516118c0604086018261180f565b5060608301516118d3606086018261180f565b5060808301516118e6608086018261180f565b5060a083015184820360a08601526118fe828261182f565b91505060c083015184820360c0860152611918828261182f565b91505060e083015161192d60e0860182611872565b508091505092915050565b60006119448383611881565b905092915050565b6000602082019050919050565b6000611964826117e3565b61196e81856117ee565b935083602082028501611980856117ff565b8060005b858110156119bc578484038952815161199d8582611938565b94506119a88361194c565b925060208a01995050600181019050611984565b50829750879550505050505092915050565b600060208201905081810360008301526119e88184611959565b905092915050565b600060208284031215611a0657611a05611553565b5b6000611a14848285016116c8565b91505092915050565b7f4e487b7100000000000000000000000000000000000000000000000000000000600052602260045260246000fd5b60006002820490506001821680611a6457607f821691505b602082108103611a7757611a76611a1d565b5b50919050565b600081905092915050565b6000611a9382611739565b611a9d8185611a7d565b9350611aad818560208601611755565b80840191505092915050565b6000611ac58284611a88565b91508190509291505056fea2646970667358221220ba2393fdac211ebbc81feb070ae2619d3f2c4239d31362ab32bc781760aa010464736f6c634300080e0033",
  "immutableReferences": {},
  "source": "// SPDX-License-Identifier: MIT\npragma solidity >=0.4.21 <8.10.0;\npragma experimental ABIEncoderV2;\n\ncontract JankenGame {\n    struct JankenGameLog {\n        uint16 winnerId;\n        uint16 looserId;\n        uint16 playerId1;\n        uint16 playerId2;\n        uint16 podSize;\n        string playerHand1;\n        string playerHand2;\n        uint date;\n    }\n    string public playerHand1;\n    string public playerHand2;\n    uint16 playerId1;\n    uint16 playerId2;\n    uint16 podSize;\n\n    JankenGameLog[] JankenGameLogs;\n\n    function compareStrings(string memory a, string memory b) private pure returns (bool) {\n        return (keccak256(abi.encodePacked((a))) == keccak256(abi.encodePacked((b))));\n    }\n\n    function addJankenGameLog(uint16 winnerId, uint16 looserId) private  {\n        JankenGameLogs.push(JankenGameLog(winnerId, looserId, playerId1, playerId2, podSize, playerHand1, playerHand2, block.timestamp));\n    }\n    function setPlayerHand1(string memory _playerHand1, uint16 _playerId1) public {\n        //require(podSize > 0, \"set podSize first!\");\n        //require(compareStrings(playerHand1, \"\"), \"hand already set!\");\n        playerHand1 = _playerHand1;\n        playerId1 = _playerId1;\n    }\n    function setPlayerHand2(string memory _playerHand2, uint16 _playerId2) public {\n        //require(podSize > 0, \"set podSize first!\");\n        //require(compareStrings(playerHand2, \"\"), \"hand already set!\");\n        playerHand2 = _playerHand2;\n        playerId2 = _playerId2;\n    }\n    function setPodSize(uint16 _podSize) public {\n        podSize = _podSize;\n    }\n    function calcGame() public {\n        if(compareStrings(playerHand1, playerHand2)) {\n            addJankenGameLog(0, 0);\n        }\n        if(compareStrings(playerHand1, \"G\") && compareStrings(playerHand2, \"C\")) {\n            addJankenGameLog(playerId1, playerId2);\n        }\n        if(compareStrings(playerHand1, \"G\") && compareStrings(playerHand2, \"P\")) {\n            addJankenGameLog(playerId2, playerId1);\n        }\n        if(compareStrings(playerHand1, \"C\") && compareStrings(playerHand2, \"P\")) {\n            addJankenGameLog(playerId1, playerId2);\n        }\n        if(compareStrings(playerHand1, \"C\") && compareStrings(playerHand2, \"G\")) {\n            addJankenGameLog(playerId2, playerId1);\n        }\n        if(compareStrings(playerHand1, \"P\") && compareStrings(playerHand2, \"G\")) {\n            addJankenGameLog(playerId1, playerId2);\n        }\n        if(compareStrings(playerHand1, \"P\") && compareStrings(playerHand2, \"C\")) {\n            addJankenGameLog(playerId2, playerId1);\n        }\n        playerId1 = 0;\n        playerId2 = 0;\n        playerHand1 = \"\";\n        playerHand2 = \"\";\n        podSize = 0;\n    }\n    function getAllGameLog() public view returns (JankenGameLog[] memory) {\n        return JankenGameLogs;\n    }\n}\n",
  "sourcePath": "/Users/asaikentarou/Desktop/dev/jankengame/truffle/contracts/JankenGame.sol",
  "compiler": {
    "name": "solc",
    "version": "0.8.14+commit.80d49f37.Emscripten.clang"
  },
  "schemaVersion": "3.4.7",
  "updatedAt": "2022-06-25T15:54:18.126Z",
  "networkType": "ethereum",
  "devdoc": {
    "kind": "dev",
    "methods": {},
    "version": 1
  },
  "userdoc": {
    "kind": "user",
    "methods": {},
    "version": 1
  }
}