{
  "contractName": "JankenGame",
  "abi": [
    {
      "inputs": [],
      "name": "playerHand1",
      "outputs": [
        {
          "internalType": "string",
          "name": "",
          "type": "string"
        }
      ],
      "stateMutability": "view",
      "type": "function",
      "constant": true
    },
    {
      "inputs": [],
      "name": "playerHand2",
      "outputs": [
        {
          "internalType": "string",
          "name": "",
          "type": "string"
        }
      ],
      "stateMutability": "view",
      "type": "function",
      "constant": true
    },
    {
      "inputs": [
        {
          "internalType": "string",
          "name": "_playerHand1",
          "type": "string"
        },
        {
          "internalType": "uint16",
          "name": "_playerId1",
          "type": "uint16"
        }
      ],
      "name": "setPlayerHand1",
      "outputs": [],
      "stateMutability": "nonpayable",
      "type": "function"
    },
    {
      "inputs": [
        {
          "internalType": "string",
          "name": "_playerHand2",
          "type": "string"
        },
        {
          "internalType": "uint16",
          "name": "_playerId2",
          "type": "uint16"
        }
      ],
      "name": "setPlayerHand2",
      "outputs": [],
      "stateMutability": "nonpayable",
      "type": "function"
    },
    {
      "inputs": [
        {
          "internalType": "address",
          "name": "_podAddress",
          "type": "address"
        }
      ],
      "name": "setPodSize",
      "outputs": [],
      "stateMutability": "nonpayable",
      "type": "function"
    },
    {
      "inputs": [
        {
          "internalType": "uint16",
          "name": "_podSize",
          "type": "uint16"
        }
      ],
      "name": "setPodSize",
      "outputs": [],
      "stateMutability": "nonpayable",
      "type": "function"
    },
    {
      "inputs": [],
      "name": "calcGame",
      "outputs": [],
      "stateMutability": "nonpayable",
      "type": "function"
    },
    {
      "inputs": [],
      "name": "getAllGameLog",
      "outputs": [
        {
          "components": [
            {
              "internalType": "uint16",
              "name": "winnerId",
              "type": "uint16"
            },
            {
              "internalType": "uint16",
              "name": "looserId",
              "type": "uint16"
            },
            {
              "internalType": "uint16",
              "name": "playerId1",
              "type": "uint16"
            },
            {
              "internalType": "uint16",
              "name": "playerId2",
              "type": "uint16"
            },
            {
              "internalType": "uint16",
              "name": "podSize",
              "type": "uint16"
            },
            {
              "internalType": "string",
              "name": "playerHand1",
              "type": "string"
            },
            {
              "internalType": "string",
              "name": "playerHand2",
              "type": "string"
            },
            {
              "internalType": "uint256",
              "name": "date",
              "type": "uint256"
            }
          ],
          "internalType": "struct JankenGame.JankenGameLog[]",
          "name": "",
          "type": "tuple[]"
        }
      ],
      "stateMutability": "view",
      "type": "function",
      "constant": true
    }
  ],
  "bytecode": "0x608060405234801561001057600080fd5b50611bfc806100206000396000f3fe608060405234801561001057600080fd5b50600436106100885760003560e01c80639d99b6271161005b5780639d99b62714610101578063f18387711461010b578063fb8c1e4214610129578063fc4fb00b1461014557610088565b80632b5e17f61461008d578063446755d2146100a95780635e9d4ce4146100c557806363c00702146100e3575b600080fd5b6100a760048036038101906100a29190611748565b610161565b005b6100c360048036038101906100be9190611802565b610199565b005b6100cd6101dd565b6040516100da91906118b7565b60405180910390f35b6100eb61026b565b6040516100f89190611ac4565b60405180910390f35b610109610499565b005b61011361111f565b60405161012091906118b7565b60405180910390f35b610143600480360381019061013e9190611748565b6111ad565b005b61015f600480360381019061015a9190611ae6565b6111e4565b005b8160009080519060200190610177929190611511565b5080600260006101000a81548161ffff021916908361ffff1602179055505050565b80600260066101000a81548173ffffffffffffffffffffffffffffffffffffffff021916908373ffffffffffffffffffffffffffffffffffffffff16021790555050565b600180546101ea90611b42565b80601f016020809104026020016040519081016040528092919081815260200182805461021690611b42565b80156102635780601f1061023857610100808354040283529160200191610263565b820191906000526020600020905b81548152906001019060200180831161024657829003601f168201915b505050505081565b60606003805480602002602001604051908101604052809291908181526020016000905b828210156104905783829060005260206000209060040201604051806101000160405290816000820160009054906101000a900461ffff1661ffff1661ffff1681526020016000820160029054906101000a900461ffff1661ffff1661ffff1681526020016000820160049054906101000a900461ffff1661ffff1661ffff1681526020016000820160069054906101000a900461ffff1661ffff1661ffff1681526020016000820160089054906101000a900461ffff1661ffff1661ffff16815260200160018201805461036390611b42565b80601f016020809104026020016040519081016040528092919081815260200182805461038f90611b42565b80156103dc5780601f106103b1576101008083540402835291602001916103dc565b820191906000526020600020905b8154815290600101906020018083116103bf57829003601f168201915b505050505081526020016002820180546103f590611b42565b80601f016020809104026020016040519081016040528092919081815260200182805461042190611b42565b801561046e5780601f106104435761010080835404028352916020019161046e565b820191906000526020600020905b81548152906001019060200180831161045157829003601f168201915b505050505081526020016003820154815250508152602001906001019061028f565b50505050905090565b6105b7600080546104a990611b42565b80601f01602080910402602001604051908101604052809291908181526020018280546104d590611b42565b80156105225780601f106104f757610100808354040283529160200191610522565b820191906000526020600020905b81548152906001019060200180831161050557829003601f168201915b50505050506001805461053490611b42565b80601f016020809104026020016040519081016040528092919081815260200182805461056090611b42565b80156105ad5780601f10610582576101008083540402835291602001916105ad565b820191906000526020600020905b81548152906001019060200180831161059057829003601f168201915b5050505050611204565b156105c8576105c760008061125d565b5b610691600080546105d890611b42565b80601f016020809104026020016040519081016040528092919081815260200182805461060490611b42565b80156106515780601f1061062657610100808354040283529160200191610651565b820191906000526020600020905b81548152906001019060200180831161063457829003601f168201915b50505050506040518060400160405280600181526020017f4700000000000000000000000000000000000000000000000000000000000000815250611204565b80156107625750610761600180546106a890611b42565b80601f01602080910402602001604051908101604052809291908181526020018280546106d490611b42565b80156107215780601f106106f657610100808354040283529160200191610721565b820191906000526020600020905b81548152906001019060200180831161070457829003601f168201915b50505050506040518060400160405280600181526020017f4300000000000000000000000000000000000000000000000000000000000000815250611204565b5b156107905761078f600260009054906101000a900461ffff1660028054906101000a900461ffff1661125d565b5b610859600080546107a090611b42565b80601f01602080910402602001604051908101604052809291908181526020018280546107cc90611b42565b80156108195780601f106107ee57610100808354040283529160200191610819565b820191906000526020600020905b8154815290600101906020018083116107fc57829003601f168201915b50505050506040518060400160405280600181526020017f4700000000000000000000000000000000000000000000000000000000000000815250611204565b801561092a57506109296001805461087090611b42565b80601f016020809104026020016040519081016040528092919081815260200182805461089c90611b42565b80156108e95780601f106108be576101008083540402835291602001916108e9565b820191906000526020600020905b8154815290600101906020018083116108cc57829003601f168201915b50505050506040518060400160405280600181526020017f5000000000000000000000000000000000000000000000000000000000000000815250611204565b5b156109585761095760028054906101000a900461ffff16600260009054906101000a900461ffff1661125d565b5b610a216000805461096890611b42565b80601f016020809104026020016040519081016040528092919081815260200182805461099490611b42565b80156109e15780601f106109b6576101008083540402835291602001916109e1565b820191906000526020600020905b8154815290600101906020018083116109c457829003601f168201915b50505050506040518060400160405280600181526020017f4300000000000000000000000000000000000000000000000000000000000000815250611204565b8015610af25750610af160018054610a3890611b42565b80601f0160208091040260200160405190810160405280929190818152602001828054610a6490611b42565b8015610ab15780601f10610a8657610100808354040283529160200191610ab1565b820191906000526020600020905b815481529060010190602001808311610a9457829003601f168201915b50505050506040518060400160405280600181526020017f5000000000000000000000000000000000000000000000000000000000000000815250611204565b5b15610b2057610b1f600260009054906101000a900461ffff1660028054906101000a900461ffff1661125d565b5b610be960008054610b3090611b42565b80601f0160208091040260200160405190810160405280929190818152602001828054610b5c90611b42565b8015610ba95780601f10610b7e57610100808354040283529160200191610ba9565b820191906000526020600020905b815481529060010190602001808311610b8c57829003601f168201915b50505050506040518060400160405280600181526020017f4300000000000000000000000000000000000000000000000000000000000000815250611204565b8015610cba5750610cb960018054610c0090611b42565b80601f0160208091040260200160405190810160405280929190818152602001828054610c2c90611b42565b8015610c795780601f10610c4e57610100808354040283529160200191610c79565b820191906000526020600020905b815481529060010190602001808311610c5c57829003601f168201915b50505050506040518060400160405280600181526020017f4700000000000000000000000000000000000000000000000000000000000000815250611204565b5b15610ce857610ce760028054906101000a900461ffff16600260009054906101000a900461ffff1661125d565b5b610db160008054610cf890611b42565b80601f0160208091040260200160405190810160405280929190818152602001828054610d2490611b42565b8015610d715780601f10610d4657610100808354040283529160200191610d71565b820191906000526020600020905b815481529060010190602001808311610d5457829003601f168201915b50505050506040518060400160405280600181526020017f5000000000000000000000000000000000000000000000000000000000000000815250611204565b8015610e825750610e8160018054610dc890611b42565b80601f0160208091040260200160405190810160405280929190818152602001828054610df490611b42565b8015610e415780601f10610e1657610100808354040283529160200191610e41565b820191906000526020600020905b815481529060010190602001808311610e2457829003601f168201915b50505050506040518060400160405280600181526020017f4700000000000000000000000000000000000000000000000000000000000000815250611204565b5b15610eb057610eaf600260009054906101000a900461ffff1660028054906101000a900461ffff1661125d565b5b610f7960008054610ec090611b42565b80601f0160208091040260200160405190810160405280929190818152602001828054610eec90611b42565b8015610f395780601f10610f0e57610100808354040283529160200191610f39565b820191906000526020600020905b815481529060010190602001808311610f1c57829003601f168201915b50505050506040518060400160405280600181526020017f5000000000000000000000000000000000000000000000000000000000000000815250611204565b801561104a575061104960018054610f9090611b42565b80601f0160208091040260200160405190810160405280929190818152602001828054610fbc90611b42565b80156110095780601f10610fde57610100808354040283529160200191611009565b820191906000526020600020905b815481529060010190602001808311610fec57829003601f168201915b50505050506040518060400160405280600181526020017f4300000000000000000000000000000000000000000000000000000000000000815250611204565b5b156110785761107760028054906101000a900461ffff16600260009054906101000a900461ffff1661125d565b5b6000600260006101000a81548161ffff021916908361ffff16021790555060006002806101000a81548161ffff021916908361ffff16021790555060405180602001604052806000815250600090805190602001906110d8929190611511565b5060405180602001604052806000815250600190805190602001906110fe929190611511565b506000600260046101000a81548161ffff021916908361ffff160217905550565b6000805461112c90611b42565b80601f016020809104026020016040519081016040528092919081815260200182805461115890611b42565b80156111a55780601f1061117a576101008083540402835291602001916111a5565b820191906000526020600020905b81548152906001019060200180831161118857829003601f168201915b505050505081565b81600190805190602001906111c3929190611511565b50806002806101000a81548161ffff021916908361ffff1602179055505050565b80600260046101000a81548161ffff021916908361ffff16021790555050565b6000816040516020016112179190611baf565b604051602081830303815290604052805190602001208360405160200161123e9190611baf565b6040516020818303038152906040528051906020012014905092915050565b60036040518061010001604052808461ffff1681526020018361ffff168152602001600260009054906101000a900461ffff1661ffff16815260200160028054906101000a900461ffff1661ffff168152602001600260049054906101000a900461ffff1661ffff168152602001600080546112d890611b42565b80601f016020809104026020016040519081016040528092919081815260200182805461130490611b42565b80156113515780601f1061132657610100808354040283529160200191611351565b820191906000526020600020905b81548152906001019060200180831161133457829003601f168201915b505050505081526020016001805461136890611b42565b80601f016020809104026020016040519081016040528092919081815260200182805461139490611b42565b80156113e15780601f106113b6576101008083540402835291602001916113e1565b820191906000526020600020905b8154815290600101906020018083116113c457829003601f168201915b5050505050815260200142815250908060018154018082558091505060019003906000526020600020906004020160009091909190915060008201518160000160006101000a81548161ffff021916908361ffff16021790555060208201518160000160026101000a81548161ffff021916908361ffff16021790555060408201518160000160046101000a81548161ffff021916908361ffff16021790555060608201518160000160066101000a81548161ffff021916908361ffff16021790555060808201518160000160086101000a81548161ffff021916908361ffff16021790555060a08201518160010190805190602001906114e3929190611511565b5060c0820151816002019080519060200190611500929190611511565b5060e0820151816003015550505050565b82805461151d90611b42565b90600052602060002090601f01602090048101928261153f5760008555611586565b82601f1061155857805160ff1916838001178555611586565b82800160010185558215611586579182015b8281111561158557825182559160200191906001019061156a565b5b5090506115939190611597565b5090565b5b808211156115b0576000816000905550600101611598565b5090565b6000604051905090565b600080fd5b600080fd5b600080fd5b600080fd5b6000601f19601f8301169050919050565b7f4e487b7100000000000000000000000000000000000000000000000000000000600052604160045260246000fd5b61161b826115d2565b810181811067ffffffffffffffff8211171561163a576116396115e3565b5b80604052505050565b600061164d6115b4565b90506116598282611612565b919050565b600067ffffffffffffffff821115611679576116786115e3565b5b611682826115d2565b9050602081019050919050565b82818337600083830152505050565b60006116b16116ac8461165e565b611643565b9050828152602081018484840111156116cd576116cc6115cd565b5b6116d884828561168f565b509392505050565b600082601f8301126116f5576116f46115c8565b5b813561170584826020860161169e565b91505092915050565b600061ffff82169050919050565b6117258161170e565b811461173057600080fd5b50565b6000813590506117428161171c565b92915050565b6000806040838503121561175f5761175e6115be565b5b600083013567ffffffffffffffff81111561177d5761177c6115c3565b5b611789858286016116e0565b925050602061179a85828601611733565b9150509250929050565b600073ffffffffffffffffffffffffffffffffffffffff82169050919050565b60006117cf826117a4565b9050919050565b6117df816117c4565b81146117ea57600080fd5b50565b6000813590506117fc816117d6565b92915050565b600060208284031215611818576118176115be565b5b6000611826848285016117ed565b91505092915050565b600081519050919050565b600082825260208201905092915050565b60005b8381101561186957808201518184015260208101905061184e565b83811115611878576000848401525b50505050565b60006118898261182f565b611893818561183a565b93506118a381856020860161184b565b6118ac816115d2565b840191505092915050565b600060208201905081810360008301526118d1818461187e565b905092915050565b600081519050919050565b600082825260208201905092915050565b6000819050602082019050919050565b61190e8161170e565b82525050565b600082825260208201905092915050565b60006119308261182f565b61193a8185611914565b935061194a81856020860161184b565b611953816115d2565b840191505092915050565b6000819050919050565b6119718161195e565b82525050565b6000610100830160008301516119906000860182611905565b5060208301516119a36020860182611905565b5060408301516119b66040860182611905565b5060608301516119c96060860182611905565b5060808301516119dc6080860182611905565b5060a083015184820360a08601526119f48282611925565b91505060c083015184820360c0860152611a0e8282611925565b91505060e0830151611a2360e0860182611968565b508091505092915050565b6000611a3a8383611977565b905092915050565b6000602082019050919050565b6000611a5a826118d9565b611a6481856118e4565b935083602082028501611a76856118f5565b8060005b85811015611ab25784840389528151611a938582611a2e565b9450611a9e83611a42565b925060208a01995050600181019050611a7a565b50829750879550505050505092915050565b60006020820190508181036000830152611ade8184611a4f565b905092915050565b600060208284031215611afc57611afb6115be565b5b6000611b0a84828501611733565b91505092915050565b7f4e487b7100000000000000000000000000000000000000000000000000000000600052602260045260246000fd5b60006002820490506001821680611b5a57607f821691505b602082108103611b6d57611b6c611b13565b5b50919050565b600081905092915050565b6000611b898261182f565b611b938185611b73565b9350611ba381856020860161184b565b80840191505092915050565b6000611bbb8284611b7e565b91508190509291505056fea264697066735822122072380d418227274228d4bf436b3385752e51d6d1c356ab051d85b80241cfb9ce64736f6c634300080e0033",
  "immutableReferences": {},
  "source": "// SPDX-License-Identifier: MIT\npragma solidity >=0.4.21 <8.10.0;\npragma experimental ABIEncoderV2;\n\ncontract JankenGame {\n    struct JankenGameLog {\n        uint16 winnerId;\n        uint16 looserId;\n        uint16 playerId1;\n        uint16 playerId2;\n        uint16 podSize;\n        string playerHand1;\n        string playerHand2;\n        uint date;\n    }\n    string public playerHand1;\n    string public playerHand2;\n    uint16 playerId1;\n    uint16 playerId2;\n    uint16 podSize;\n    address podAddress;\n\n    JankenGameLog[] JankenGameLogs;\n\n    function compareStrings(string memory a, string memory b) private pure returns (bool) {\n        return (keccak256(abi.encodePacked((a))) == keccak256(abi.encodePacked((b))));\n    }\n\n    function addJankenGameLog(uint16 winnerId, uint16 looserId) private  {\n        JankenGameLogs.push(JankenGameLog(winnerId, looserId, playerId1, playerId2, podSize, playerHand1, playerHand2, block.timestamp));\n    }\n    function setPlayerHand1(string memory _playerHand1, uint16 _playerId1) public {\n        //require(podSize > 0, \"set podSize first!\");\n        //require(compareStrings(playerHand1, \"\"), \"hand already set!\");\n        playerHand1 = _playerHand1;\n        playerId1 = _playerId1;\n    }\n    function setPlayerHand2(string memory _playerHand2, uint16 _playerId2) public {\n        //require(podSize > 0, \"set podSize first!\");\n        //require(compareStrings(playerHand2, \"\"), \"hand already set!\");\n        playerHand2 = _playerHand2;\n        playerId2 = _playerId2;\n    }\n    function setPodSize(uint16 _podSize) public {\n        podSize = _podSize;\n    }\n    function setPodSize(address _podAddress) public {\n        podAddress = _podAddress;\n    }\n    function calcGame() public {\n        if(compareStrings(playerHand1, playerHand2)) {\n            addJankenGameLog(0, 0);\n        }\n        if(compareStrings(playerHand1, \"G\") && compareStrings(playerHand2, \"C\")) {\n            addJankenGameLog(playerId1, playerId2);\n        }\n        if(compareStrings(playerHand1, \"G\") && compareStrings(playerHand2, \"P\")) {\n            addJankenGameLog(playerId2, playerId1);\n        }\n        if(compareStrings(playerHand1, \"C\") && compareStrings(playerHand2, \"P\")) {\n            addJankenGameLog(playerId1, playerId2);\n        }\n        if(compareStrings(playerHand1, \"C\") && compareStrings(playerHand2, \"G\")) {\n            addJankenGameLog(playerId2, playerId1);\n        }\n        if(compareStrings(playerHand1, \"P\") && compareStrings(playerHand2, \"G\")) {\n            addJankenGameLog(playerId1, playerId2);\n        }\n        if(compareStrings(playerHand1, \"P\") && compareStrings(playerHand2, \"C\")) {\n            addJankenGameLog(playerId2, playerId1);\n        }\n        playerId1 = 0;\n        playerId2 = 0;\n        playerHand1 = \"\";\n        playerHand2 = \"\";\n        podSize = 0;\n    }\n    function getAllGameLog() public view returns (JankenGameLog[] memory) {\n        return JankenGameLogs;\n    }\n}\n",
  "sourcePath": "/Users/asaikentarou/Desktop/dev/ethjankengame/truffle/contracts/JankenGame.sol",
  "compiler": {
    "name": "solc",
    "version": "0.8.14+commit.80d49f37.Emscripten.clang"
  },
  "schemaVersion": "3.4.7",
  "updatedAt": "2022-06-26T01:59:48.043Z",
  "networkType": "ethereum",
  "devdoc": {
    "kind": "dev",
    "methods": {},
    "version": 1
  },
  "userdoc": {
    "kind": "user",
    "methods": {},
    "version": 1
  }
}